:020000040800F2
:10000000B004002001010008D7100008350F0008D7
:10001000D51000086D010008E91500080000000077
:10002000000000000000000000000000C5130008F0
:100030006F01000800000000C9120008C713000883
:100040001B0100081B0100081B0100081B01000820
:100050001B0100081B0100081B0100081B01000810
:100060001B0100081B0100081B0100081B01000800
:100070001B0100081B0100081B0100081B010008F0
:100080001B0100081B0100081B0100081B010008E0
:100090001B0100081B0100081B0100081B010008D0
:1000A0001B0100081B0100081B0100081B010008C0
:1000B0001B0100081B0100081B0100081B010008B0
:1000C0001B0100081B0100081B0100081B010008A0
:1000D0001B0100081B0100081B0100081B01000890
:1000E0001B0100081B0100081B010008DFF80CD0F1
:1000F00000F02AF80048004729160008B004002044
:100100000648804706480047FEE7FEE7FEE7FEE7B1
:10011000FEE7FEE7FEE7FEE7FEE7FEE7191400084C
:10012000ED000008D2B201E000F8012B491EFBD21D
:1001300070470022F6E710B513460A4604461946F2
:10014000FFF7F0FF204610BD064C074D06E0E068C3
:1001500040F0010394E8070098471034AC42F6D30E
:10016000FFF7C8FFB8160008D8160008FEE770476A
:100170007047000070B5044600F00CF90546601C9D
:1001800002D004480078044400F004F9401BA04267
:10019000FAD370BD000000202DE9F84FDFF8B891C8
:1001A000002409F1040A0AF1040B23460F270BF17E
:1001B000040EC9E00125A5402A40AA427DD1674E20
:1001C000D1F804C0ACEB0608B44532D014DCBCF165
:1001D000030F3AD009DCBCF1000F2AD0BCF1010FAB
:1001E0001CD0BCF1020F31D11DE0BCF1110F17D0B2
:1001F000BCF1120F2AD119E0B8F5881F19D006DC1E
:10020000B8F5803F15D0B8F5801F1FD111E0B8F5C3
:10021000001F0ED0B8F5041F18D10AE0CB6815E016
:10022000CB681B1D12E0CB6808330FE0CB680C33A2
:100230000CE08B682BB1012B4FF0080303D0456114
:1002400004E0042302E0056100E00023FF2A01D856
:10025000064601E000F104064FEA840501D9A5F144
:100260002005D6F8008007FA05FC28EA0C0803FAF6
:1002700005F548EA0508C6F800804D68ED0062D52E
:10028000374DAE6946F00106AE61AD6924F0030654
:1002900005F001050095334D06EB050CDCF8085020
:1002A000A607360F07FA06F825EA0805DFF8B88032
:1002B000404503D14FF0000817E044E0DFF8AC8080
:1002C000404502D14FF001080FE0DFF8A48040451F
:1002D00002D14FF0020808E0DFF89880404502D1D3
:1002E0004FF0030801E04FF0040808FA06F848EA66
:1002F0000508CCF808804D68D9F80060ED034D463C
:1003000001D5164300E096432E604D68DAF8006090
:10031000AD03554601D5164300E096432E604D6867
:10032000DBF80060ED025D4601D5164300E0964320
:100330002E604D68DEF80060AD02754601D51643AB
:1003400000E096432E60641C0D682A46E5407FF469
:1003500031AFBDE8F88F000000040140000011102B
:10036000001002400000014000080140000C014064
:100370000010014000140140C26821EA02030A4053
:1003800043EA0241016170470AB101617047090403
:10039000FBE7000001488068704700000000002073
:1003A0000248816802781144816070470000002093
:1003B000074810B5016841F010010160032000F00A
:1003C00067F8002000F006F800F024F8002010BDC7
:1003D0000020024070B50D4D04464FF47A71287824
:1003E000B1FBF0F00A490968B1FBF0F000F041FC04
:1003F00048B9102C07D200222146501E00F028F8E0
:1004000000206C6070BD012070BD00000000002065
:100410000C0000200C4808B5816941F001018161A0
:10042000816901F001010091C16941F08051C16110
:10043000C06900F0805000900448416821F0E061FC
:1004400041F00071416008BD001002400000014011
:10045000F0B40E4B1B680C46C3F30223C3F107052F
:10046000042D00D90425191D072901D2002300E01D
:10047000DB1E012606FA05F1491E214099409E40E7
:10048000761E16403143F0BC01F0AFB80CED00E031
:10049000064900F0070208684FF6FF03184040EADB
:1004A0000220034A10430860704700000CED00E092
:1004B0000000FA052DE9F0470F46050061D0434ED4
:1004C000306800F00700B84209D2306820F0070019
:1004D00038433060306800F00700B84251D12868D6
:1004E0003B4C810712D5400703D5606840F4E060BB
:1004F00060602878000703D5606840F46050606051
:100500006068A96820F0F000084360602878C007A0
:1005100028D06868012810D02168022810D08907E7
:1005200000292EDA616821F0030101436160FFF7C1
:1005300031FF804641F288390DE021688903EFE7F9
:100540008901EDE7FFF726FFA0EB0801494502D935
:100550000320BDE8F0876068696800F00C00B0EB2C
:10056000810FEFD1306800F00700B8420BD9306836
:1005700020F0070038433060306800F00700B842D0
:1005800001D00120E5E72878400705D56068E968D3
:1005900020F4E060084360602878000706D56068B2
:1005A000296920F4605040EAC100606000F018F84A
:1005B0006168084AC1F30311515CC84006490860EC
:1005C00006480068FFF706FF0020C2E7002002404F
:1005D000001002409C1600080C00002004000020BF
:1005E00012A185B00FC98DE80F0014A0144A00684D
:1005F00004905168134801F00C03042B10D0082B11
:100600000ED1C1F38343C9031DF803000AD5516815
:1006100004AAC1F34041515C0A4A5043B0FBF1F0D7
:1006200005B0704708494843FAE700000203040593
:10063000060708090A0B0C0D0E0F1010010200002E
:100640000010024000127A0000093D002DE9F84F29
:10065000040070D02078C04DC00749D06868C0F34E
:100660008100012807D06868C0F38100022809D101
:100670006868C00306D52868800339D560680028FB
:10068000E7D035E06068B0F5803F0BD010B1B0F531
:10069000A02F11D0286820F480302860286820F42A
:1006A000802002E0286840F480302860606890B1C3
:1006B000FFF770FE06460AE0286840F480202860B4
:1006C000F0E700BFFFF766FE801B642873D8286838
:1006D0008003F7D50CE0FFF75DFE064605E000BF9E
:1006E000FFF758FE801B6428F0D828688003F7D4F1
:1006F00020789A4E80074FF001094FF0000839D555
:10070000686810F00C0F07D06868C0F381000228F9
:1007100009D16868C00306D42868800714D5206909
:10072000012808D110E02069B0B1C6F80090FFF7A9
:1007300031FE074605E00AE1FFF72CFEC01B022848
:10074000C4D828688007F7D52868616920F0F800C8
:1007500040EAC10028600DE0C6F80080FFF71AFEED
:10076000074604E0FFF716FEC01B022823D82868BE
:100770008007F7D4207800072CD57948A169D9B132
:10078000C0F80090FFF706FE074604E0FFF702FE00
:10079000C01B02280FD8686A8007F7D571484FF44C
:1007A000FA510068B0FBF1F0009000BF0098411EC4
:1007B0000091FAD20EE080E0C0F80080FFF7EAFD79
:1007C000074604E0FFF7E6FDC01B022875D8686AFB
:1007D0008007F7D42078400760D5E8690027C0007B
:1007E00008D4E86940F08050E861E869012700F02A
:1007F000805000905C480168C90513D401688346A5
:1008000041F480710160FFF7C5FD824606E000BF3C
:10081000FFF7C0FDA0EB0A0064284ED8DBF800000B
:10082000C005F5D5E06801280AD008B1052813D025
:10083000286A20F001002862286A20F0040002E003
:10084000286A40F001002862E06841F2883B98B1D4
:10085000FFF7A0FD82460BE0286A40F00400286202
:10086000EEE700BFFFF796FDA0EB0A0159455AD805
:10087000286A8007F6D50CE0FFF78CFD824605E07C
:10088000FFF788FDA0EB0A0159454CD8286A80077C
:10089000F6D41FB1E86920F08050E861E06988B3C0
:1008A0006968C1F38101022944D00228C6F860803A
:1008B00004D0FFF76FFD044638E034E0FFF76AFD2F
:1008C000074604E0FFF766FDC01B02282BD8286806
:1008D0008001F7D4206AB0F5803F05D16868A1682F
:1008E00020F4003008436860D4E9080108436968CF
:1008F00021F4741108436860C6F86090FFF74AFD60
:10090000044606E025E000BFFFF744FD001B022877
:1009100009D828688001F7D51BE000BFFFF73AFD32
:10092000001B022802D90320BDE8F88F2868800147
:10093000F4D40EE00128F7D06868226A00F4803110
:10094000914204D1616A00F47010884201D0012004
:10095000EAE70020E8E70000001002400000424201
:10096000800442420C0000200070004070B504007A
:1009700009D0606A002540B125616561A56294F8DF
:10098000510040B10CE0012070BD6068B0F5827F7D
:10099000F4D0E561F2E784F85050204600F040F8CA
:1009A000022084F851002068016821F040010160B4
:1009B000A088218900F4827001F404410843A189D0
:1009C00001F400610843217C01F002010843217D0C
:1009D00001F001010843218B01F400710843217FDC
:1009E00001F03801084394F8201001F08001084319
:1009F000218D01F40051084321680860A069042199
:100A000001EA1040216848602068C16921F4006152
:100A1000C1616565012084F85100002070BD0000AF
:100A200030B585B0002400940194029403940068CA
:100A30001449884223D11448816941F4805181616D
:100A4000816901F480510491816941F0040181615F
:100A500080690E4D00F004000490A0200090022058
:100A600001900320039069462846FFF795FB40203C
:100A7000CDE90004694628460294FFF78DFB05B0D6
:100A800030BD00000030014000100240000801406D
:100A90002DE9F84F044690F8500000270A9E1D46A5
:100AA00092468B464FF0010901280ED0012084F8B0
:100AB0005000FFF76FFC804694F8510061680128F0
:100AC0000CD0B1F5827F07D102E00220BDE8F88F9B
:100AD000A16809B9042801D00227C2E0BBF1000FC8
:100AE00027D0BAF1000F24D01DB394F85100042888
:100AF00002D0052084F8510000206065C4F838A0B9
:100B0000E587A587C4F830B0E586A58620646064D3
:100B100020680168490603D4016841F04001016082
:100B2000E068B0F5006F606805D0E8B3012D46D0ED
:100B30007FE0012795E008B1012D39D1206B2168B4
:100B40000088C860206B801C2063E08E401EE08619
:100B50002EE02068816889070FD5E18E69B1B9F16F
:100B6000010F0AD1216B0988C160206B801C2063B2
:100B7000E08E401EE0864FF0000920688168C907BA
:100B80000CD0E18F51B1C068A16B0880A06B801CB4
:100B9000A063E08F401EE0874FF00109FFF7FAFBEA
:100BA000A0EB0800B04200E009E001D3701C50D176
:100BB000E08E0028CDD1E08F0028CAD13FE0206B25
:100BC000216800780873206B401C2063E08E401E73
:100BD000E0862EE02068816889070FD5E18E69B133
:100BE000B9F1010F0AD1216B09780173206B401C08
:100BF0002063E08E401EE0864FF000092068816887
:100C0000C9070CD0E18F51B1C068A16B0870A06B0F
:100C1000401CA063E08F401EE0874FF00109FFF702
:100C2000B9FBA0EB0800B04202D3701C01D010E069
:100C30007EB1E08E0028CDD1E08F0028CAD1424697
:100C40003146204600F052FB28B101272020606584
:100C500007E0032705E0A06818B92068C16880682C
:100C60000090012084F85100002084F8500038469C
:100C70002CE710B5401EB0F1807F01D3012010BDDC
:100C80004FF0E02460610F21601700F0AEFC0020FF
:100C9000A06107202061002010BD000070B590F811
:100CA0003C20012A26D0012480F83C40022280F812
:100CB0003D2003685A689D6822F070060A68324336
:100CC0005A600D4B02689A4208D0B2F1804F05D0AD
:100CD0000A4B9A4202D00A4B9A4204D1496825F045
:100CE00080031943916080F83D40002180F83C105A
:100CF000084670BD022070BD002C01400004004079
:100D00000008004000B585B00021009101910291DA
:100D1000039100680B49884212D10B48816941F068
:100D2000080181618069694600F0080004904FF471
:100D3000607000900220019003900448FFF72CFAA5
:100D400005B000BD0008004000100240000C01404A
:100D500070B5044690F83C000D4601280AD00120E9
:100D600084F83C0042B1042A18D0082A2AD00C2A60
:100D70004DD139E0022070BD206800F093FB20685F
:100D8000816941F0080181612068816921F00401D5
:100D90008161206881692A69114311E0206800F0AF
:100DA000A9FB2068816941F4006181612068816943
:100DB00021F480618161206881692A6941EA022108
:100DC000816124E0206800F0C1FB2068C16941F026
:100DD0000801C1612068C16921F00401C161206876
:100DE000C1692A69114311E0206800F0DBFB20682B
:100DF000C16941F40061C1612068C16921F4806169
:100E0000C1612068C1692A6941EA0221C1610020EB
:100E100084F83C0070BD10B5040003D094F83D0088
:100E200010B107E0012010BD002084F83C002046EE
:100E300000F01EF8022084F83D00211D206800F01B
:100E4000EDFA012084F8460084F83E0084F83F0063
:100E500084F8400084F8410084F8420084F843009C
:100E600084F8440084F8450084F83D00002010BD5B
:100E700008B500680649884208D10648C16941F0B2
:100E80000401C161C06900F00400009008BD0000C9
:100E9000000800400010024010B50446022249B18B
:100EA00004290ED0082913D094F84100012816D047
:100EB000012010BD94F83E000128F9D184F83E20AD
:100EC0000FE094F83F000128F2D184F83F2008E0B9
:100ED00094F840000128EBD184F8402001E084F828
:100EE00041200122206800F0CFFA0F492068884293
:100EF00003D1426C42F4004242642068884208D028
:100F0000B0F1804F05D00949884202D00849884293
:100F100004D1816801F00701062903D0016841F07E
:100F200001010160002010BD002C014000040040C0
:100F300000080040FEE70000F0B585B00024274817
:100F40000094019402940394816941F0100181613D
:100F5000816901F010010491816941F020018161F2
:100F6000816901F020010491816941F004018161EE
:100F7000816901F004010491816941F008018161F6
:100F80008069174E00F008004FF4005504900022CD
:100F900029463046FFF7F8F9124F0122032138465F
:100FA000FFF7F2F90220CDE90240009501256946DC
:100FB00001953046FFF7F0F810208DE831006946C2
:100FC0000948FFF7E9F80320CDE90005CDE9024023
:100FD00069463846FFF7E0F805B0F0BD0010024062
:100FE00000100140000C014000080140104810B5FD
:100FF0000E4901604FF48271416000218160C1603F
:101000004FF400720161C0E905121022C0E9072106
:10101000416281620A21C162FFF7A8FC002803D067
:10102000BDE81040FFF7A4B810BD0000003001403B
:101030001000002010B58AB0002407941C216846D7
:101040000894FFF776F822482049016042F20F71B8
:10105000C0E9011441F61F41C0E9031480218161F8
:10106000FFF7D9FE08B1FFF783F8079407A91848DE
:101070000894FFF713FE08B1FFF77AF8602000909C
:101080004FF4FA70CDE90104042269461048049433
:10109000FFF75EFE08B1FFF76BF8082269460C48BF
:1010A000FFF756FE08B1FFF763F84FF47A7001902E
:1010B0000C2269460648FFF74BFE08B1FFF758F8C7
:1010C0000348FFF71FFE0AB010BD000000080040F3
:1010D00068000020FEE770471CB50FA10522D1E98A
:1010E0000001CDE900016946302000F0AFF805228B
:1010F0006946102000F054F8002069460A5CA52AD1
:1011000003D1401CC0B20528F8D3052801D0012026
:101110001CBD00201CBD0000A5A5A5A5A5000000C4
:1011200010B5064C002202212046FFF72DF920467B
:101130000122BDE810401146FFF726B9000C01401E
:1011400010B5154C002202212046FFF71DF905229B
:1011500012492A2000F07AF80121212000F09AF8A3
:101160000121222000F096F82821252000F092F895
:101170002021312000F08EF80F21262000F08AF87F
:101180000F21202000F086F820460122BDE8104003
:101190000221FFF7F9B80000000C0140B116000869
:1011A0002DE9F041DFF83C8015460F460446002249
:1011B00001214046FFF7E8F8204600F087F8064690
:1011C000002405E0FF2000F081F83855641CE4B2EB
:1011D000AC42F7D3012211464046FFF7D5F830461E
:1011E000BDE8F081000C014070B50A4D04460022B4
:1011F00001212846FFF7C8F8204600F067F8FF20D5
:1012000000F064F80446012211462846FFF7BCF8B6
:10121000204670BD000C014070B505460720FFF761
:10122000E3FF04460146272000F034F860060AD5A3
:10123000202229466120FFF7B3FFFF21E22000F0C2
:1012400029F8002070BD012070BD00002DE9F0419B
:10125000DFF83C8016460D46044600220121404638
:10126000FFF792F8204600F031F80746002405E029
:1012700015F8010B00F02AF8641CE4B2B442F7D36D
:10128000012211464046FFF77FF83846BDE8F0815D
:10129000000C014070B50B4D0E46044600220121A2
:1012A0002846FFF771F8204600F010F80446304653
:1012B00000F00CF8012211462846FFF765F8204699
:1012C00070BD0000000C01407047000001B582B005
:1012D0004FF47A700090012301AA02A90248FFF797
:1012E000D7FB9DF804000EBD1000002038B50B465A
:1012F000009204460022802100F008F8002804D063
:10130000606D40F020006065032038BD2DE9F84392
:101310001E46914688460446089DFFF73BF8401B51
:10132000351AFFF737F8074625480068C0F3CB3079
:10133000684338E0701C37D0FFF72CF8C01BA84278
:1013400003D215B1009860B32CE02068416821F009
:10135000E00141606068B0F5827F0BD1A068B0F514
:10136000004F02D0B0F5806F04D12068016821F0F1
:1013700040010160A06AB0F5005F09D120680168F2
:1013800021F4005101602068016841F400510160BE
:10139000012084F85100002084F850000320BDE8AB
:1013A000F8830025401E00902068816838EA01001B
:1013B00004D000214945BDD10020F0E70121F9E723
:1013C0000C0000207047FEF7EBBF30B58FB028212E
:1013D0006846FEF7AEFE14210AA8FEF7AAFE012118
:1013E0000804CDE900100024029402250491CDE9FF
:1013F00007504FF4E01009906846FFF727F90F20D7
:10140000CDE90A056802CDE90C4002210AA80E9434
:10141000FFF750F80FB030BD70470000F0B502681C
:10142000164B174C174D4FF08047984205D0B842E5
:1014300003D0A04201D0A84203D122F070064A682E
:101440003243984205D0B84203D0A04201D0A8420E
:1014500003D122F44074CA6822434C6922F080020E
:10146000224302608A68C2620A688262984201D19D
:101470000969016301214161F0BD0000002C0140B8
:10148000000400400008004010B501F01F030121D6
:10149000046A99408C430462016A9A4011430162D4
:1014A00010BD000030B5026A22F001020262026A39
:1014B0004368846924F073050C682C4322F002050C
:1014C0008A682A430A4DA8420BD122F00805CA684F
:1014D00023F440732A434D6922F004021D438B69B3
:1014E0002B434360846149684163026230BD000060
:1014F000002C014030B5026A22F010020262026A3A
:10150000436884690D6824F4E64444EA05248D6840
:1015100022F0200242EA05120B4DA8420ED1CD68FE
:1015200022F0800242EA05124D6923F4406343EA47
:1015300085038D6922F0400243EA8503436084619C
:1015400049688163026230BD002C014030B5026AF7
:1015500022F480720262036A4268C46923F4007351
:1015600024F073050C682C438D6843EA05230C4D69
:10157000A8420ED1CD6823F4006343EA05234D69E8
:1015800022F4405242EA05128D6923F4806342EA54
:1015900005124260C4614968C163036230BD000046
:1015A000002C014030B5026A22F480520262046AC3
:1015B0004268C3690D6823F4E64343EA05238D6856
:1015C00024F4005444EA0534064DA84204D14D6980
:1015D00022F4804242EA85124260C3614968016494
:1015E000046230BD002C0140FEE70907090E002807
:1015F00004DB00F1E02080F80014704700F00F00D9
:1016000000F1E02080F8141D704702E008C8121FA6
:1016100008C1002AFAD170477047002001E001C1DB
:10162000121F002AFBD170478AB0FEF7C1FEFFF7F8
:10163000CCFEFFF781FCFFF7FDFCFFF7D7FC042190
:101640001448FFF729FCFFF76BFD4FF40054124DCF
:101650004FF4967606E021462846FEF78DFE30468A
:10166000FEF788FDFFF738FD0028F4D1012221465E
:101670002846FEF789FEFFF763FD00266846FFF760
:10168000CBFD0028FAD18DF8206021462846FEF7D0
:1016900073FEF3E768000020001001400000000026
:1016A000000000000102030406070809344310107B
:1016B0000134431010010000D8160008000000207B
:1016C000100000000A160008E816000810000020AC
:1016D000A00400001A16000801000000100000001D
:0816E000000000000024F400EA
:04000005080000ED02
:00000001FF
